:100000000C942A000C9447000C9447000C94470071
:100010000C9447000C9447000C9447000C94470044
:100020000C9447000C9447000C9447000C94470034
:100030000C9447000C9447000C9447000C94470024
:100040000C9447000C9447000C9447000C94470014
:100050000C94470011241FBECFE5D8E0DEBFCDBF12
:1000600010E0A0E6B0E0EEEFFDE002C005900D92DA
:10007000A23BB107D9F710E0A2EBB0E001C01D929E
:10008000A23BB107E1F70E9493040C94FD060C9487
:1000900000003E9A379A329A319A089580E487B9DF
:1000A000369A349BFECF349A84B195B1089540E0DE
:1000B0000E945E0008950E94CD010895843409F4E1
:1000C00071C0853448F4823499F1833408F04DC00E
:1000D000813409F083C00FC0823651F1833620F499
:1000E000813609F07BC007C0833609F43EC08436F0
:1000F00009F074C057C0413069F42AB381E090E040
:10010000AC0102C0440F551F6A95E2F7BA01622B99
:100110006ABB08952AB381E090E0AC0102C0440FAD
:10012000551F6A95E2F7BA01609562236ABB08958C
:10013000413069F427B381E090E0AC0102C0440F84
:10014000551F6A95E2F7BA01622B67BB089527B382
:1001500081E090E0AC0102C0440F551F6A95E2F7C0
:10016000BA016095622367BB0895413069F424B3F6
:1001700081E090E0AC0102C0440F551F6A95E2F7A0
:10018000BA01622B64BB089524B381E090E0AC0116
:1001900002C0440F551F6A95E2F7BA0160956223C9
:1001A00064BB0895413069F421B381E090E0AC0173
:1001B00002C0440F551F6A95E2F7BA01622B61BB7A
:1001C000089521B381E090E0AC0102C0440F551FB7
:1001D0006A95E2F7BA016095622361BB08958434A1
:1001E00009F471C0853448F4823499F1833408F0FD
:1001F0004DC0813409F083C00FC0823651F183367F
:1002000020F4813609F07BC007C0833609F43EC074
:10021000843609F074C057C0413069F42BB381E0D3
:1002200090E0AC0102C0440F551F6A95E2F7BA0195
:10023000622B6BBB08952BB381E090E0AC0102C050
:10024000440F551F6A95E2F7BA01609562236BBBB4
:100250000895413069F428B381E090E0AC0102C018
:10026000440F551F6A95E2F7BA01622B68BB0895E7
:1002700028B381E090E0AC0102C0440F551F6A959D
:10028000E2F7BA016095622368BB0895413069F4D2
:1002900025B381E090E0AC0102C0440F551F6A9580
:1002A000E2F7BA01622B65BB089525B381E090E0C7
:1002B000AC0102C0440F551F6A95E2F7BA01609580
:1002C000622365BB0895413069F422B381E090E078
:1002D000AC0102C0440F551F6A95E2F7BA01622BC8
:1002E00062BB089522B381E090E0AC0102C0440FEC
:1002F000551F6A95E2F7BA016095622362BB0895C3
:10030000843409F43DC0853440F48234F9F08334F8
:1003100050F5813409F040C00CC08236B9F0833604
:1003200018F48136C9F505C08336E9F08436A1F5A5
:1003300027C02BB381E090E0AC0102C0440F551FF1
:100340006A95E2F7BA0162276BBB089528B381E092
:1003500090E0AC0102C0440F551F6A95E2F7BA0164
:10036000622768BB089525B381E090E0AC0102C02C
:10037000440F551F6A95E2F7BA01622765BB0895DD
:1003800022B381E090E0AC0102C0440F551F6A9592
:10039000E2F7BA01622762BB0895843409F44EC0C3
:1003A000853440F4823431F18334B0F5813409F07E
:1003B00057C00EC08236F1F0833620F4813609F042
:1003C0004FC006C0833641F1843609F049C036C0BB
:1003D00029B381E090E0062E02C0880F991F0A948D
:1003E000E2F730E08223932302C0959587956A95C2
:1003F000E2F7089526B381E090E0062E02C0880F50
:10040000991F0A94E2F730E08223932302C0959566
:1004100087956A95E2F7089523B381E090E0062E70
:1004200002C0880F991F0A94E2F730E082239323D9
:1004300002C0959587956A95E2F7089520B381E00B
:1004400090E0062E02C0880F991F0A94E2F730E070
:100450008223932302C0959587956A95E2F70895C4
:1004600008958434D9F0853438F4823499F0833493
:1004700098F48134A1F40CC0823661F0833618F40C
:10048000813669F405C0833639F0843641F406C0FC
:100490006ABB089567BB089564BB089561BB089566
:1004A0008434D9F0853438F4823499F0833498F464
:1004B0008134A1F40CC0823661F0833618F48136A1
:1004C00069F405C0833639F0843641F406C06BBB4D
:1004D000089568BB089565BB089562BB0895843490
:1004E000D9F0853438F4823499F0833498F4813427
:1004F000A1F40CC0823661F0833618F4813669F4B9
:1005000005C0833639F0843641F406C089B30895B6
:1005100086B3089583B3089580B30895843409F1B0
:10052000853438F48234A9F08334B8F48134E1F4AA
:100530000CC0823671F0833618F48136A9F405C0F8
:10054000833659F0843681F40CC08BB380958BBB15
:10055000089588B3809588BB089585B3809585BB41
:10056000089582B3809582BB0895843409F471C0E4
:10057000853448F4823499F1833408F04DC08134D5
:1005800009F083C00FC0823651F1833620F48136E2
:1005900009F07BC007C0833609F43EC0843609F0F9
:1005A00074C057C0413069F42BB381E090E0AC01D6
:1005B00002C0440F551F6A95E2F7BA01622B6BBB6C
:1005C00008952BB381E090E0AC0102C0440F551FA9
:1005D0006A95E2F7BA01609562236BBB08954130DA
:1005E00069F428B381E090E0AC0102C0440F551FCC
:1005F0006A95E2F7BA01622B68BB089528B381E0DF
:1006000090E0AC0102C0440F551F6A95E2F7BA01B1
:100610006095622368BB0895413069F425B381E099
:1006200090E0AC0102C0440F551F6A95E2F7BA0191
:10063000622B65BB089525B381E090E0AC0102C058
:10064000440F551F6A95E2F7BA016095622365BBB6
:100650000895413069F422B381E090E0AC0102C01A
:10066000440F551F6A95E2F7BA01622B62BB0895E9
:1006700022B381E090E0AC0102C0440F551F6A959F
:10068000E2F7BA016095622362BB08956F7082340D
:1006900081F0833418F48134F1F405C0833479F0A7
:1006A0008434C9F412C08BB3807F8BBB8BB3862B91
:1006B0008BBB88B3807F88BB88B3862B88BB85B310
:1006C000807F85BB85B3862B85BB82B3807F82BB51
:1006D00082B3682B62BB08956295607F823481F09B
:1006E000833418F48134F1F405C0833479F0843410
:1006F000C9F412C08BB38F708BBB8BB3862B8BBBB3
:1007000088B38F7088BB88B3862B88BB85B38F7006
:1007100085BB85B3862B85BB82B38F7082BB82B3CA
:10072000682B62BB089581E463E041E00E94EF0022
:100730008FE99FE00197F1F700C0000081E463E0DA
:1007400040E00E94EF008FE99FE00197F1F700C0C1
:1007500000000895CF93C82F682F62956F7081E4D1
:100760000E946C0381E462E041E00E94EF000E947D
:10077000930381E46C2F0E946C0381E462E041E00A
:100780000E94EF000E9493038FEC97E00197F1F72E
:1007900000C00000CF910895CF93C82F682F6295B5
:1007A0006F7081E40E946C0381E462E040E00E948B
:1007B000EF000E94930381E46C2F0E946C0381E49C
:1007C00062E040E00E94EF000E9493038FEC97E00C
:1007D0000197F1F700C00000CF9108958FEF91EEDF
:1007E000A4E081509040A040E1F700C0000081E407
:1007F00064E041E00E945E0081E465E041E00E9427
:100800005E0081E466E041E00E945E0081E467E012
:1008100041E00E945E0081E463E041E00E945E00EE
:1008200081E462E041E00E945E0081E461E041E039
:100830000E945E0081E461E040E00E94EF0082E0FF
:100840000E94CC03AFE1BEE41197F1F700C00000B5
:1008500088E20E94CC038FEC97E00197F1F700C08B
:1008600000008EE00E94CC03AFECB7E01197F1F7E7
:1008700000C000008FE19EE40197F1F700C0000086
:1008800086E00E94CC03AFECB7E01197F1F700C00F
:100890000000089581E00E94CC038FE19EE401975F
:1008A000F1F700C000000895CF93DF93EC01888139
:1008B000882331F021960E94AA0389918823D9F7D1
:1008C000DF91CF910895282F2150223070F46131AB
:1008D00070F4662371F0813019F4962F91580AC094
:1008E000823041F4962F915405C090E803C090E8FF
:1008F00001C090E8892F0E94CC038FEC97E001970C
:10090000F1F700C00000089541E00E945E000895E4
:1009100041E00E94EF00089540E00E94EF0008953A
:100920000E94800108950E94EE030E9449008CE01D
:100930000E94CC0380E690E00E9454048FEF90E781
:10094000A2E081509040A040E1F700C000000E946A
:100950004A0481E790E00E94540404E610E00F2E60
:10096000FAE0EF2EFF24F02D0F2EFAE7CF2EF0E065
:10097000DF2EF02D0F2EFCE7AF2EF0E0BF2EF02D76
:100980000F2EFFE98F2EF0E09F2EF02D0F2EFEE8A8
:100990006F2EF0E07F2EF02D0E944E00DC01BD0195
:1009A000882777FD8095982F0E94E70520E030E0AA
:1009B00048EC52E40E94730620E030EC4FE754E428
:1009C0000E944C050E94B405DC01CB01E801C81B64
:1009D000D90BCF31D105E0F481E069E00E946304D6
:1009E000CE01B7010E94D606C82F862F805D0E94D7
:1009F000AA038C2F805D0E94AA03C6010E945404A2
:100A000082E061E00E946304C5010E945404C4CFE7
:100A1000CE014F9788329105E0F481E069E00E94B1
:100A20006304CE01B7010E94D606C82F862F805DD1
:100A30000E94AA038C2F805D0E94AA03C6010E9417
:100A4000540482E061E00E946304C3010E945404E4
:100A5000A3CFCE01875490408D31910508F09CCFF3
:100A600081E069E00E946304CE01B7010E94D606CE
:100A7000C82F862F805D0E94AA038C2F805D0E9464
:100A8000AA03C6010E94540482E061E00E9463044C
:100A9000C4010E94540480CF0CD0EBC0E3D040F0DE
:100AA000DAD030F021F45F3F19F0CCC0511115C1FC
:100AB000CFC0F0D098F39923C9F35523B1F3951B18
:100AC000550BBB27AA2762177307840738F09F5F6F
:100AD0005F4F220F331F441FAA1FA9F333D00E2EDE
:100AE0003AF0E0E830D091505040E695001CCAF74B
:100AF00029D0FE2F27D0660F771F881FBB1F261710
:100B000037074807AB07B0E809F0BB0B802DBF01E2
:100B1000FF2793585F4F2AF09E3F510568F092C01F
:100B2000DCC05F3FECF3983EDCF3869577956795E4
:100B3000B795F7959F5FC9F7880F911D9695879593
:100B400097F90895E1E0660F771F881FBB1F6217B2
:100B500073078407BA0720F0621B730B840BBA0B70
:100B6000EE1F88F7E095089504D06894B111B5C0E0
:100B7000089598D088F09F5790F0B92F9927B751D2
:100B8000A0F0D1F0660F771F881F991F1AF0BA9551
:100B9000C9F712C0B13081F09FD0B1E008959CC078
:100BA000672F782F8827B85F39F0B93FCCF3869547
:100BB00077956795B395D9F73EF4909580957095A4
:100BC00061957F4F8F4F9F4F0895E89409C097FB21
:100BD0003EF490958095709561957F4F8F4F9F4F14
:100BE0009923A9F0F92F96E9BB279395F695879558
:100BF00077956795B795F111F8CFFAF4BB0F11F41B
:100C000060FF1BC06F5F7F4F8F4F9F4F16C08823C1
:100C100011F096E911C0772321F09EE8872F762FF7
:100C200005C0662371F096E8862F70E060E02AF038
:100C30009A95660F771F881FDAF7880F9695879524
:100C400097F9089597F99F6780E870E060E008954C
:100C50009FEF80EC089500240A94161617061806D4
:100C60000906089500240A941216130614060506B0
:100C70000895092E0394000C11F4882352F0BB0F41
:100C800040F4BF2B11F460FF04C06F5F7F4F8F4FA4
:100C90009F4F089557FD9058440F551F59F05F3FDF
:100CA00071F04795880F97FB991F61F09F3F79F08E
:100CB00087950895121613061406551FF2CF469510
:100CC000F1DF08C0161617061806991FF1CF869592
:100CD0007105610508940895E894BB276627772776
:100CE000CB0197F908950BD0C4CFB5DF28F0BADF58
:100CF00018F0952309F0A6CFABCF1124EECFCADFB1
:100D0000A0F3959FD1F3950F50E0551F629FF0011E
:100D1000729FBB27F00DB11D639FAA27F00DB11D77
:100D2000AA1F649F6627B00DA11D661F829F222700
:100D3000B00DA11D621F739FB00DA11D621F839F87
:100D4000A00D611D221F749F3327A00D611D231F5D
:100D5000849F600D211D822F762F6A2F11249F57AB
:100D600050408AF0E1F088234AF0EE0FFF1FBB1FCE
:100D7000661F771F881F91505040A9F79E3F51056D
:100D800070F060CFAACF5F3FECF3983EDCF386951E
:100D900077956795B795F795E7959F5FC1F7FE2B18
:100DA000880F911D9695879597F9089597FB092EC1
:100DB00007260AD077FD04D00CD006D000201AF404
:100DC000709561957F4F0895F6F7909581959F4FA7
:100DD0000895AA1BBB1B51E107C0AA1FBB1FA61782
:100DE000B70710F0A61BB70B881F991F5A95A9F7D4
:0E0DF00080959095BC01CD010895F894FFCF39
:100DFE00536F696C204D6F6973747572652E2E2E4C
:100E0E000050657263656E743A0025005468652063
:100E1E00536F696C20697320447279202000536FE0
:100E2E00696C206973205375697461626C65005436
:100E3E00686520536F696C20697320576574202094
:020E4E000000A2
:00000001FF
